{
    "_format": "hh-sol-artifact-1",
    "contractName": "GmPortal",
    "sourceName": "contracts/GmPortal.sol",
    "abi": [
        {
            "inputs": [],
            "stateMutability": "nonpayable",
            "type": "constructor"
        },
        {
            "inputs": [
                {
                    "internalType": "uint256",
                    "name": "",
                    "type": "uint256"
                }
            ],
            "name": "addresses",
            "outputs": [
                {
                    "internalType": "address",
                    "name": "",
                    "type": "address"
                }
            ],
            "stateMutability": "view",
            "type": "function"
        },
        {
            "inputs": [],
            "name": "getAddresses",
            "outputs": [
                {
                    "internalType": "address[]",
                    "name": "",
                    "type": "address[]"
                }
            ],
            "stateMutability": "view",
            "type": "function"
        },
        {
            "inputs": [],
            "name": "getTotalGms",
            "outputs": [
                {
                    "internalType": "uint256",
                    "name": "",
                    "type": "uint256"
                }
            ],
            "stateMutability": "view",
            "type": "function"
        },
        {
            "inputs": [],
            "name": "gm",
            "outputs": [],
            "stateMutability": "nonpayable",
            "type": "function"
        }
    ],
    "bytecode": "0x608060405234801561001057600080fd5b506100596040518060400160405280602081526020017f596f20796f2c20666972737420736d61727420636f6e74726163742c204c464781525061005e60201b6103a11760201c565b6101e1565b6100fa81604051602401610072919061015f565b6040516020818303038152906040527f41304fac000000000000000000000000000000000000000000000000000000007bffffffffffffffffffffffffffffffffffffffffffffffffffffffff19166020820180517bffffffffffffffffffffffffffffffffffffffffffffffffffffffff83818316178352505050506100fd60201b60201c565b50565b60008151905060006a636f6e736f6c652e6c6f679050602083016000808483855afa5050505050565b600061013182610181565b61013b818561018c565b935061014b81856020860161019d565b610154816101d0565b840191505092915050565b600060208201905081810360008301526101798184610126565b905092915050565b600081519050919050565b600082825260208201905092915050565b60005b838110156101bb5780820151818401526020810190506101a0565b838111156101ca576000848401525b50505050565b6000601f19601f8301169050919050565b61097f806101f06000396000f3fe608060405234801561001057600080fd5b506004361061004c5760003560e01c80638a215be314610051578063a39fac121461006f578063c0129d431461008d578063edf26d9b14610097575b600080fd5b6100596100c7565b6040516100669190610774565b60405180910390f35b610077610112565b60405161008491906106d0565b60405180910390f35b610095610267565b005b6100b160048036038101906100ac91906105b0565b610362565b6040516100be91906106b5565b60405180910390f35b600061010a6040518060400160405280601581526020017f5765206861766520256420746f74616c20676d7321000000000000000000000081525060005461043a565b600054905090565b606060005b6001805490508110156101da576101c76040518060400160405280601181526020017f53656e646572206164647265737365733a00000000000000000000000000000081525060018381548110610197577f4e487b7100000000000000000000000000000000000000000000000000000000600052603260045260246000fd5b9060005260206000200160009054906101000a900473ffffffffffffffffffffffffffffffffffffffff166104d6565b80806101d2906108a9565b915050610117565b50600180548060200260200160405190810160405280929190818152602001828054801561025d57602002820191906000526020600020905b8160009054906101000a900473ffffffffffffffffffffffffffffffffffffffff1673ffffffffffffffffffffffffffffffffffffffff1681526020019060010190808311610213575b5050505050905090565b600160008082825461027991906107e4565b925050819055506102bf6040518060400160405280600f81526020017f257320686173207361696420676d210000000000000000000000000000000000815250336104d6565b6001339080600181540180825580915050600190039060005260206000200160009091909190916101000a81548173ffffffffffffffffffffffffffffffffffffffff021916908373ffffffffffffffffffffffffffffffffffffffff1602179055506103606040518060400160405280601581526020017f5075736865642073656e646572206164647265737300000000000000000000008152506103a1565b565b6001818154811061037257600080fd5b906000526020600020016000915054906101000a900473ffffffffffffffffffffffffffffffffffffffff1681565b610437816040516024016103b591906106f2565b6040516020818303038152906040527f41304fac000000000000000000000000000000000000000000000000000000007bffffffffffffffffffffffffffffffffffffffffffffffffffffffff19166020820180517bffffffffffffffffffffffffffffffffffffffffffffffffffffffff8381831617835250505050610572565b50565b6104d28282604051602401610450929190610744565b6040516020818303038152906040527f9710a9d0000000000000000000000000000000000000000000000000000000007bffffffffffffffffffffffffffffffffffffffffffffffffffffffff19166020820180517bffffffffffffffffffffffffffffffffffffffffffffffffffffffff8381831617835250505050610572565b5050565b61056e82826040516024016104ec929190610714565b6040516020818303038152906040527f319af333000000000000000000000000000000000000000000000000000000007bffffffffffffffffffffffffffffffffffffffffffffffffffffffff19166020820180517bffffffffffffffffffffffffffffffffffffffffffffffffffffffff8381831617835250505050610572565b5050565b60008151905060006a636f6e736f6c652e6c6f679050602083016000808483855afa5050505050565b6000813590506105aa81610932565b92915050565b6000602082840312156105c257600080fd5b60006105d08482850161059b565b91505092915050565b60006105e583836105f1565b60208301905092915050565b6105fa8161083a565b82525050565b6106098161083a565b82525050565b600061061a8261079f565b61062481856107c2565b935061062f8361078f565b8060005b8381101561066057815161064788826105d9565b9750610652836107b5565b925050600181019050610633565b5085935050505092915050565b6000610678826107aa565b61068281856107d3565b9350610692818560208601610876565b61069b81610921565b840191505092915050565b6106af8161086c565b82525050565b60006020820190506106ca6000830184610600565b92915050565b600060208201905081810360008301526106ea818461060f565b905092915050565b6000602082019050818103600083015261070c818461066d565b905092915050565b6000604082019050818103600083015261072e818561066d565b905061073d6020830184610600565b9392505050565b6000604082019050818103600083015261075e818561066d565b905061076d60208301846106a6565b9392505050565b600060208201905061078960008301846106a6565b92915050565b6000819050602082019050919050565b600081519050919050565b600081519050919050565b6000602082019050919050565b600082825260208201905092915050565b600082825260208201905092915050565b60006107ef8261086c565b91506107fa8361086c565b9250827fffffffffffffffffffffffffffffffffffffffffffffffffffffffffffffffff0382111561082f5761082e6108f2565b5b828201905092915050565b60006108458261084c565b9050919050565b600073ffffffffffffffffffffffffffffffffffffffff82169050919050565b6000819050919050565b60005b83811015610894578082015181840152602081019050610879565b838111156108a3576000848401525b50505050565b60006108b48261086c565b91507fffffffffffffffffffffffffffffffffffffffffffffffffffffffffffffffff8214156108e7576108e66108f2565b5b600182019050919050565b7f4e487b7100000000000000000000000000000000000000000000000000000000600052601160045260246000fd5b6000601f19601f8301169050919050565b61093b8161086c565b811461094657600080fd5b5056fea26469706673582212209902691e34e84ba58947ad24da3c424952732bdfa7631567d2e1a6a4d4960ba264736f6c63430008040033",
    "linkReferences": {},
    "deployedLinkReferences": {}
}