{
  "_format": "hh-sol-artifact-1",
  "contractName": "GmPortal",
  "sourceName": "contracts/GmPortal.sol",
  "abi": [
    {
      "inputs": [],
      "stateMutability": "payable",
      "type": "constructor"
    },
    {
      "anonymous": false,
      "inputs": [
        {
          "indexed": true,
          "internalType": "address",
          "name": "from",
          "type": "address"
        },
        {
          "indexed": false,
          "internalType": "uint256",
          "name": "timestamp",
          "type": "uint256"
        },
        {
          "indexed": false,
          "internalType": "string",
          "name": "message",
          "type": "string"
        }
      ],
      "name": "NewGm",
      "type": "event"
    },
    {
      "inputs": [
        {
          "internalType": "uint256",
          "name": "",
          "type": "uint256"
        }
      ],
      "name": "addresses",
      "outputs": [
        {
          "internalType": "address",
          "name": "",
          "type": "address"
        }
      ],
      "stateMutability": "view",
      "type": "function"
    },
    {
      "inputs": [],
      "name": "getAddresses",
      "outputs": [
        {
          "internalType": "address[]",
          "name": "",
          "type": "address[]"
        }
      ],
      "stateMutability": "view",
      "type": "function"
    },
    {
      "inputs": [],
      "name": "getAllGms",
      "outputs": [
        {
          "components": [
            {
              "internalType": "address",
              "name": "from",
              "type": "address"
            },
            {
              "internalType": "uint256",
              "name": "timestamp",
              "type": "uint256"
            },
            {
              "internalType": "string",
              "name": "message",
              "type": "string"
            }
          ],
          "internalType": "struct GmPortal.Gm[]",
          "name": "",
          "type": "tuple[]"
        }
      ],
      "stateMutability": "view",
      "type": "function"
    },
    {
      "inputs": [],
      "name": "getTotalGms",
      "outputs": [
        {
          "internalType": "uint256",
          "name": "",
          "type": "uint256"
        }
      ],
      "stateMutability": "view",
      "type": "function"
    },
    {
      "inputs": [
        {
          "internalType": "string",
          "name": "_message",
          "type": "string"
        }
      ],
      "name": "gm",
      "outputs": [],
      "stateMutability": "nonpayable",
      "type": "function"
    },
    {
      "inputs": [
        {
          "internalType": "address",
          "name": "",
          "type": "address"
        }
      ],
      "name": "lastGmAt",
      "outputs": [
        {
          "internalType": "uint256",
          "name": "",
          "type": "uint256"
        }
      ],
      "stateMutability": "view",
      "type": "function"
    }
  ],
  "bytecode": "0x60806040526200004f6040518060400160405280601781526020017f5765206861766520636f6e7374727563746564206c66670000000000000000008152506200007760201b620009221760201c565b606444426200005f9190620001c4565b6200006b919062000261565b60028190555062000308565b62000117816040516024016200008e919062000184565b6040516020818303038152906040527f41304fac000000000000000000000000000000000000000000000000000000007bffffffffffffffffffffffffffffffffffffffffffffffffffffffff19166020820180517bffffffffffffffffffffffffffffffffffffffffffffffffffffffff83818316178352505050506200011a60201b60201c565b50565b60008151905060006a636f6e736f6c652e6c6f679050602083016000808483855afa5050505050565b60006200015082620001a8565b6200015c8185620001b3565b93506200016e8185602086016200022b565b6200017981620002f7565b840191505092915050565b60006020820190508181036000830152620001a0818462000143565b905092915050565b600081519050919050565b600082825260208201905092915050565b6000620001d18262000221565b9150620001de8362000221565b9250827fffffffffffffffffffffffffffffffffffffffffffffffffffffffffffffffff0382111562000216576200021562000299565b5b828201905092915050565b6000819050919050565b60005b838110156200024b5780820151818401526020810190506200022e565b838111156200025b576000848401525b50505050565b60006200026e8262000221565b91506200027b8362000221565b9250826200028e576200028d620002c8565b5b828206905092915050565b7f4e487b7100000000000000000000000000000000000000000000000000000000600052601160045260246000fd5b7f4e487b7100000000000000000000000000000000000000000000000000000000600052601260045260246000fd5b6000601f19601f8301169050919050565b61171080620003186000396000f3fe608060405234801561001057600080fd5b50600436106100625760003560e01c80631c3225a9146100675780633a05e29e146100975780638a215be3146100b5578063a39fac12146100d3578063d8686ecb146100f1578063edf26d9b1461010d575b600080fd5b610081600480360381019061007c9190610cf0565b61013d565b60405161008e91906111a7565b60405180910390f35b61009f610155565b6040516100ac919061105e565b60405180910390f35b6100bd6102a6565b6040516100ca91906111a7565b60405180910390f35b6100db6102f1565b6040516100e8919061103c565b60405180910390f35b61010b60048036038101906101069190610d19565b610446565b005b61012760048036038101906101229190610d5a565b6108e3565b6040516101349190611021565b60405180910390f35b60046020528060005260406000206000915090505481565b60606003805480602002602001604051908101604052809291908181526020016000905b8282101561029d57838290600052602060002090600302016040518060600160405290816000820160009054906101000a900473ffffffffffffffffffffffffffffffffffffffff1673ffffffffffffffffffffffffffffffffffffffff1673ffffffffffffffffffffffffffffffffffffffff1681526020016001820154815260200160028201805461020c906113c6565b80601f0160208091040260200160405190810160405280929190818152602001828054610238906113c6565b80156102855780601f1061025a57610100808354040283529160200191610285565b820191906000526020600020905b81548152906001019060200180831161026857829003601f168201915b50505050508152505081526020019060010190610179565b50505050905090565b60006102e96040518060400160405280601581526020017f5765206861766520256420746f74616c20676d732100000000000000000000008152506000546109bb565b600054905090565b606060005b6001805490508110156103b9576103a66040518060400160405280601181526020017f53656e646572206164647265737365733a00000000000000000000000000000081525060018381548110610376577f4e487b7100000000000000000000000000000000000000000000000000000000600052603260045260246000fd5b9060005260206000200160009054906101000a900473ffffffffffffffffffffffffffffffffffffffff16610a57565b80806103b190611429565b9150506102f6565b50600180548060200260200160405190810160405280929190818152602001828054801561043c57602002820191906000526020600020905b8160009054906101000a900473ffffffffffffffffffffffffffffffffffffffff1673ffffffffffffffffffffffffffffffffffffffff16815260200190600101908083116103f2575b5050505050905090565b42610384600460003373ffffffffffffffffffffffffffffffffffffffff1673ffffffffffffffffffffffffffffffffffffffff1681526020019081526020016000205461049491906112f2565b106104d4576040517f08c379a00000000000000000000000000000000000000000000000000000000081526004016104cb90611167565b60405180910390fd5b42600460003373ffffffffffffffffffffffffffffffffffffffff1673ffffffffffffffffffffffffffffffffffffffff16815260200190815260200160002081905550600160008082825461052a91906112f2565b925050819055506105716040518060400160405280601d81526020017f257320686173207361696420676d2120772f206d6573736167652025730000008152503383610af3565b6001339080600181540180825580915050600190039060005260206000200160009091909190916101000a81548173ffffffffffffffffffffffffffffffffffffffff021916908373ffffffffffffffffffffffffffffffffffffffff1602179055506106126040518060400160405280601581526020017f5075736865642073656e64657220616464726573730000000000000000000000815250610922565b600360405180606001604052803373ffffffffffffffffffffffffffffffffffffffff16815260200142815260200183815250908060018154018082558091505060019003906000526020600020906003020160009091909190915060008201518160000160006101000a81548173ffffffffffffffffffffffffffffffffffffffff021916908373ffffffffffffffffffffffffffffffffffffffff1602179055506020820151816001015560408201518160020190805190602001906106db929190610bbb565b505050606460025442446106ef91906112f2565b6106f991906112f2565b6107039190611472565b60028190555061074a6040518060400160405280601681526020017f52616e646f6d20232067656e6572617465643a202564000000000000000000008152506002546109bb565b603260025411610794576107936040518060400160405280601581526020017f25732068617320776f6e20746865207072697a6521000000000000000000000081525033610a57565b5b3373ffffffffffffffffffffffffffffffffffffffff167fee86ba231d4398fdc6bddfeaf10d67c92be43790841bf9ae08cc7c476f01294e42836040516107dc9291906111c2565b60405180910390a26000655af3107a4000905047811115610832576040517f08c379a000000000000000000000000000000000000000000000000000000000815260040161082990611147565b60405180910390fd5b60003373ffffffffffffffffffffffffffffffffffffffff16826040516108589061100c565b60006040518083038185875af1925050503d8060008114610895576040519150601f19603f3d011682016040523d82523d6000602084013e61089a565b606091505b50509050806108de576040517f08c379a00000000000000000000000000000000000000000000000000000000081526004016108d590611187565b60405180910390fd5b505050565b600181815481106108f357600080fd5b906000526020600020016000915054906101000a900473ffffffffffffffffffffffffffffffffffffffff1681565b6109b8816040516024016109369190611080565b6040516020818303038152906040527f41304fac000000000000000000000000000000000000000000000000000000007bffffffffffffffffffffffffffffffffffffffffffffffffffffffff19166020820180517bffffffffffffffffffffffffffffffffffffffffffffffffffffffff8381831617835250505050610b92565b50565b610a5382826040516024016109d1929190611117565b6040516020818303038152906040527f9710a9d0000000000000000000000000000000000000000000000000000000007bffffffffffffffffffffffffffffffffffffffffffffffffffffffff19166020820180517bffffffffffffffffffffffffffffffffffffffffffffffffffffffff8381831617835250505050610b92565b5050565b610aef8282604051602401610a6d9291906110a2565b6040516020818303038152906040527f319af333000000000000000000000000000000000000000000000000000000007bffffffffffffffffffffffffffffffffffffffffffffffffffffffff19166020820180517bffffffffffffffffffffffffffffffffffffffffffffffffffffffff8381831617835250505050610b92565b5050565b610b8d838383604051602401610b0b939291906110d2565b6040516020818303038152906040527fe0e9ad4f000000000000000000000000000000000000000000000000000000007bffffffffffffffffffffffffffffffffffffffffffffffffffffffff19166020820180517bffffffffffffffffffffffffffffffffffffffffffffffffffffffff8381831617835250505050610b92565b505050565b60008151905060006a636f6e736f6c652e6c6f679050602083016000808483855afa5050505050565b828054610bc7906113c6565b90600052602060002090601f016020900481019282610be95760008555610c30565b82601f10610c0257805160ff1916838001178555610c30565b82800160010185558215610c30579182015b82811115610c2f578251825591602001919060010190610c14565b5b509050610c3d9190610c41565b5090565b5b80821115610c5a576000816000905550600101610c42565b5090565b6000610c71610c6c84611217565b6111f2565b905082815260208101848484011115610c8957600080fd5b610c94848285611384565b509392505050565b600081359050610cab816116ac565b92915050565b600082601f830112610cc257600080fd5b8135610cd2848260208601610c5e565b91505092915050565b600081359050610cea816116c3565b92915050565b600060208284031215610d0257600080fd5b6000610d1084828501610c9c565b91505092915050565b600060208284031215610d2b57600080fd5b600082013567ffffffffffffffff811115610d4557600080fd5b610d5184828501610cb1565b91505092915050565b600060208284031215610d6c57600080fd5b6000610d7a84828501610cdb565b91505092915050565b6000610d8f8383610daf565b60208301905092915050565b6000610da78383610f9e565b905092915050565b610db881611348565b82525050565b610dc781611348565b82525050565b6000610dd882611268565b610de281856112a3565b9350610ded83611248565b8060005b83811015610e1e578151610e058882610d83565b9750610e1083611289565b925050600181019050610df1565b5085935050505092915050565b6000610e3682611273565b610e4081856112b4565b935083602082028501610e5285611258565b8060005b85811015610e8e5784840389528151610e6f8582610d9b565b9450610e7a83611296565b925060208a01995050600181019050610e56565b50829750879550505050505092915050565b6000610eab8261127e565b610eb581856112d0565b9350610ec5818560208601611393565b610ece8161155f565b840191505092915050565b6000610ee48261127e565b610eee81856112e1565b9350610efe818560208601611393565b610f078161155f565b840191505092915050565b6000610f1f6055836112e1565b9150610f2a82611570565b606082019050919050565b6000610f426059836112e1565b9150610f4d826115e5565b606082019050919050565b6000610f656000836112c5565b9150610f708261165a565b600082019050919050565b6000610f886024836112e1565b9150610f938261165d565b604082019050919050565b6000606083016000830151610fb66000860182610daf565b506020830151610fc96020860182610fee565b5060408301518482036040860152610fe18282610ea0565b9150508091505092915050565b610ff78161137a565b82525050565b6110068161137a565b82525050565b600061101782610f58565b9150819050919050565b60006020820190506110366000830184610dbe565b92915050565b600060208201905081810360008301526110568184610dcd565b905092915050565b600060208201905081810360008301526110788184610e2b565b905092915050565b6000602082019050818103600083015261109a8184610ed9565b905092915050565b600060408201905081810360008301526110bc8185610ed9565b90506110cb6020830184610dbe565b9392505050565b600060608201905081810360008301526110ec8186610ed9565b90506110fb6020830185610dbe565b818103604083015261110d8184610ed9565b9050949350505050565b600060408201905081810360008301526111318185610ed9565b90506111406020830184610ffd565b9392505050565b6000602082019050818103600083015261116081610f12565b9050919050565b6000602082019050818103600083015261118081610f35565b9050919050565b600060208201905081810360008301526111a081610f7b565b9050919050565b60006020820190506111bc6000830184610ffd565b92915050565b60006040820190506111d76000830185610ffd565b81810360208301526111e98184610ed9565b90509392505050565b60006111fc61120d565b905061120882826113f8565b919050565b6000604051905090565b600067ffffffffffffffff82111561123257611231611530565b5b61123b8261155f565b9050602081019050919050565b6000819050602082019050919050565b6000819050602082019050919050565b600081519050919050565b600081519050919050565b600081519050919050565b6000602082019050919050565b6000602082019050919050565b600082825260208201905092915050565b600082825260208201905092915050565b600081905092915050565b600082825260208201905092915050565b600082825260208201905092915050565b60006112fd8261137a565b91506113088361137a565b9250827fffffffffffffffffffffffffffffffffffffffffffffffffffffffffffffffff0382111561133d5761133c6114a3565b5b828201905092915050565b60006113538261135a565b9050919050565b600073ffffffffffffffffffffffffffffffffffffffff82169050919050565b6000819050919050565b82818337600083830152505050565b60005b838110156113b1578082015181840152602081019050611396565b838111156113c0576000848401525b50505050565b600060028204905060018216806113de57607f821691505b602082108114156113f2576113f1611501565b5b50919050565b6114018261155f565b810181811067ffffffffffffffff821117156114205761141f611530565b5b80604052505050565b60006114348261137a565b91507fffffffffffffffffffffffffffffffffffffffffffffffffffffffffffffffff821415611467576114666114a3565b5b600182019050919050565b600061147d8261137a565b91506114888361137a565b925082611498576114976114d2565b5b828206905092915050565b7f4e487b7100000000000000000000000000000000000000000000000000000000600052601160045260246000fd5b7f4e487b7100000000000000000000000000000000000000000000000000000000600052601260045260246000fd5b7f4e487b7100000000000000000000000000000000000000000000000000000000600052602260045260246000fd5b7f4e487b7100000000000000000000000000000000000000000000000000000000600052604160045260246000fd5b6000601f19601f8301169050919050565b7f49276d20736f7272792c20796f7527726520747279696e6720746f2074616b6560008201527f206f7574206d6f726520657468207468616e2077652068617665203a282e204960208201527f276c6c2066697820746869732073686f72746c79210000000000000000000000604082015250565b7f49206b6e6f7720796f75206a75737420776973686564206d6520676d2121212060008201527f2d20436f6d65206261636b20746f6d6f72726f772120676d20696e207468652060208201527f6d6f726e696e672c20616e6420676e206174206e696768742100000000000000604082015250565b50565b7f4661696c656420746f207769746864726177206574682066726f6d20636f6e7460008201527f7261637400000000000000000000000000000000000000000000000000000000602082015250565b6116b581611348565b81146116c057600080fd5b50565b6116cc8161137a565b81146116d757600080fd5b5056fea264697066735822122081bcf137c3b42b23e85e1e1cc4487dce22844103eaaa931d304997416ed48e0b64736f6c63430008040033",
  "linkReferences": {},
  "deployedLinkReferences": {}
}