{
  "_format": "hh-sol-artifact-1",
  "contractName": "GmPortal",
  "sourceName": "contracts/GmPortal.sol",
  "abi": [
    {
      "inputs": [],
      "stateMutability": "nonpayable",
      "type": "constructor"
    },
    {
      "anonymous": false,
      "inputs": [
        {
          "indexed": true,
          "internalType": "address",
          "name": "from",
          "type": "address"
        },
        {
          "indexed": false,
          "internalType": "uint256",
          "name": "timestamp",
          "type": "uint256"
        },
        {
          "indexed": false,
          "internalType": "string",
          "name": "message",
          "type": "string"
        }
      ],
      "name": "NewGm",
      "type": "event"
    },
    {
      "inputs": [
        {
          "internalType": "uint256",
          "name": "",
          "type": "uint256"
        }
      ],
      "name": "addresses",
      "outputs": [
        {
          "internalType": "address",
          "name": "",
          "type": "address"
        }
      ],
      "stateMutability": "view",
      "type": "function"
    },
    {
      "inputs": [],
      "name": "getAddresses",
      "outputs": [
        {
          "internalType": "address[]",
          "name": "",
          "type": "address[]"
        }
      ],
      "stateMutability": "view",
      "type": "function"
    },
    {
      "inputs": [],
      "name": "getAllGms",
      "outputs": [
        {
          "components": [
            {
              "internalType": "address",
              "name": "from",
              "type": "address"
            },
            {
              "internalType": "uint256",
              "name": "timestamp",
              "type": "uint256"
            },
            {
              "internalType": "string",
              "name": "message",
              "type": "string"
            }
          ],
          "internalType": "struct GmPortal.Gm[]",
          "name": "",
          "type": "tuple[]"
        }
      ],
      "stateMutability": "view",
      "type": "function"
    },
    {
      "inputs": [],
      "name": "getTotalGms",
      "outputs": [
        {
          "internalType": "uint256",
          "name": "",
          "type": "uint256"
        }
      ],
      "stateMutability": "view",
      "type": "function"
    },
    {
      "inputs": [
        {
          "internalType": "string",
          "name": "_message",
          "type": "string"
        }
      ],
      "name": "gm",
      "outputs": [],
      "stateMutability": "nonpayable",
      "type": "function"
    }
  ],
  "bytecode": "0x60806040523480156200001157600080fd5b506200005d6040518060400160405280602081526020017f596f20796f2c20666972737420736d61727420636f6e74726163742c204c46478152506200006360201b6200064b1760201c565b620001f7565b62000103816040516024016200007a919062000170565b6040516020818303038152906040527f41304fac000000000000000000000000000000000000000000000000000000007bffffffffffffffffffffffffffffffffffffffffffffffffffffffff19166020820180517bffffffffffffffffffffffffffffffffffffffffffffffffffffffff83818316178352505050506200010660201b60201c565b50565b60008151905060006a636f6e736f6c652e6c6f679050602083016000808483855afa5050505050565b60006200013c8262000194565b6200014881856200019f565b93506200015a818560208601620001b0565b6200016581620001e6565b840191505092915050565b600060208201905081810360008301526200018c81846200012f565b905092915050565b600081519050919050565b600082825260208201905092915050565b60005b83811015620001d0578082015181840152602081019050620001b3565b83811115620001e0576000848401525b50505050565b6000601f19601f8301169050919050565b61113c80620002076000396000f3fe608060405234801561001057600080fd5b50600436106100575760003560e01c80633a05e29e1461005c5780638a215be31461007a578063a39fac1214610098578063d8686ecb146100b6578063edf26d9b146100d2575b600080fd5b610064610102565b6040516100719190610ca8565b60405180910390f35b610082610253565b60405161008f9190610d91565b60405180910390f35b6100a061029e565b6040516100ad9190610c86565b60405180910390f35b6100d060048036038101906100cb9190610a04565b6103f3565b005b6100ec60048036038101906100e79190610a45565b61060c565b6040516100f99190610c6b565b60405180910390f35b60606002805480602002602001604051908101604052809291908181526020016000905b8282101561024a57838290600052602060002090600302016040518060600160405290816000820160009054906101000a900473ffffffffffffffffffffffffffffffffffffffff1673ffffffffffffffffffffffffffffffffffffffff1673ffffffffffffffffffffffffffffffffffffffff168152602001600182015481526020016002820180546101b990610fa5565b80601f01602080910402602001604051908101604052809291908181526020018280546101e590610fa5565b80156102325780601f1061020757610100808354040283529160200191610232565b820191906000526020600020905b81548152906001019060200180831161021557829003601f168201915b50505050508152505081526020019060010190610126565b50505050905090565b60006102966040518060400160405280601581526020017f5765206861766520256420746f74616c20676d732100000000000000000000008152506000546106e4565b600054905090565b606060005b600180549050811015610366576103536040518060400160405280601181526020017f53656e646572206164647265737365733a00000000000000000000000000000081525060018381548110610323577f4e487b7100000000000000000000000000000000000000000000000000000000600052603260045260246000fd5b9060005260206000200160009054906101000a900473ffffffffffffffffffffffffffffffffffffffff16610780565b808061035e90611008565b9150506102a3565b5060018054806020026020016040519081016040528092919081815260200182805480156103e957602002820191906000526020600020905b8160009054906101000a900473ffffffffffffffffffffffffffffffffffffffff1673ffffffffffffffffffffffffffffffffffffffff168152602001906001019080831161039f575b5050505050905090565b60016000808282546104059190610ed1565b9250508190555061044c6040518060400160405280601d81526020017f257320686173207361696420676d2120772f206d657373616765202573000000815250338361081c565b6001339080600181540180825580915050600190039060005260206000200160009091909190916101000a81548173ffffffffffffffffffffffffffffffffffffffff021916908373ffffffffffffffffffffffffffffffffffffffff1602179055506104ed6040518060400160405280601581526020017f5075736865642073656e6465722061646472657373000000000000000000000081525061064b565b600260405180606001604052803373ffffffffffffffffffffffffffffffffffffffff16815260200142815260200183815250908060018154018082558091505060019003906000526020600020906003020160009091909190915060008201518160000160006101000a81548173ffffffffffffffffffffffffffffffffffffffff021916908373ffffffffffffffffffffffffffffffffffffffff1602179055506020820151816001015560408201518160020190805190602001906105b69291906108e4565b5050503373ffffffffffffffffffffffffffffffffffffffff167fee86ba231d4398fdc6bddfeaf10d67c92be43790841bf9ae08cc7c476f01294e4283604051610601929190610dac565b60405180910390a250565b6001818154811061061c57600080fd5b906000526020600020016000915054906101000a900473ffffffffffffffffffffffffffffffffffffffff1681565b6106e18160405160240161065f9190610cca565b6040516020818303038152906040527f41304fac000000000000000000000000000000000000000000000000000000007bffffffffffffffffffffffffffffffffffffffffffffffffffffffff19166020820180517bffffffffffffffffffffffffffffffffffffffffffffffffffffffff83818316178352505050506108bb565b50565b61077c82826040516024016106fa929190610d61565b6040516020818303038152906040527f9710a9d0000000000000000000000000000000000000000000000000000000007bffffffffffffffffffffffffffffffffffffffffffffffffffffffff19166020820180517bffffffffffffffffffffffffffffffffffffffffffffffffffffffff83818316178352505050506108bb565b5050565b6108188282604051602401610796929190610cec565b6040516020818303038152906040527f319af333000000000000000000000000000000000000000000000000000000007bffffffffffffffffffffffffffffffffffffffffffffffffffffffff19166020820180517bffffffffffffffffffffffffffffffffffffffffffffffffffffffff83818316178352505050506108bb565b5050565b6108b683838360405160240161083493929190610d1c565b6040516020818303038152906040527fe0e9ad4f000000000000000000000000000000000000000000000000000000007bffffffffffffffffffffffffffffffffffffffffffffffffffffffff19166020820180517bffffffffffffffffffffffffffffffffffffffffffffffffffffffff83818316178352505050506108bb565b505050565b60008151905060006a636f6e736f6c652e6c6f679050602083016000808483855afa5050505050565b8280546108f090610fa5565b90600052602060002090601f0160209004810192826109125760008555610959565b82601f1061092b57805160ff1916838001178555610959565b82800160010185558215610959579182015b8281111561095857825182559160200191906001019061093d565b5b509050610966919061096a565b5090565b5b8082111561098357600081600090555060010161096b565b5090565b600061099a61099584610e01565b610ddc565b9050828152602081018484840111156109b257600080fd5b6109bd848285610f63565b509392505050565b600082601f8301126109d657600080fd5b81356109e6848260208601610987565b91505092915050565b6000813590506109fe816110ef565b92915050565b600060208284031215610a1657600080fd5b600082013567ffffffffffffffff811115610a3057600080fd5b610a3c848285016109c5565b91505092915050565b600060208284031215610a5757600080fd5b6000610a65848285016109ef565b91505092915050565b6000610a7a8383610a9a565b60208301905092915050565b6000610a928383610bfd565b905092915050565b610aa381610f27565b82525050565b610ab281610f27565b82525050565b6000610ac382610e52565b610acd8185610e8d565b9350610ad883610e32565b8060005b83811015610b09578151610af08882610a6e565b9750610afb83610e73565b925050600181019050610adc565b5085935050505092915050565b6000610b2182610e5d565b610b2b8185610e9e565b935083602082028501610b3d85610e42565b8060005b85811015610b795784840389528151610b5a8582610a86565b9450610b6583610e80565b925060208a01995050600181019050610b41565b50829750879550505050505092915050565b6000610b9682610e68565b610ba08185610eaf565b9350610bb0818560208601610f72565b610bb9816110de565b840191505092915050565b6000610bcf82610e68565b610bd98185610ec0565b9350610be9818560208601610f72565b610bf2816110de565b840191505092915050565b6000606083016000830151610c156000860182610a9a565b506020830151610c286020860182610c4d565b5060408301518482036040860152610c408282610b8b565b9150508091505092915050565b610c5681610f59565b82525050565b610c6581610f59565b82525050565b6000602082019050610c806000830184610aa9565b92915050565b60006020820190508181036000830152610ca08184610ab8565b905092915050565b60006020820190508181036000830152610cc28184610b16565b905092915050565b60006020820190508181036000830152610ce48184610bc4565b905092915050565b60006040820190508181036000830152610d068185610bc4565b9050610d156020830184610aa9565b9392505050565b60006060820190508181036000830152610d368186610bc4565b9050610d456020830185610aa9565b8181036040830152610d578184610bc4565b9050949350505050565b60006040820190508181036000830152610d7b8185610bc4565b9050610d8a6020830184610c5c565b9392505050565b6000602082019050610da66000830184610c5c565b92915050565b6000604082019050610dc16000830185610c5c565b8181036020830152610dd38184610bc4565b90509392505050565b6000610de6610df7565b9050610df28282610fd7565b919050565b6000604051905090565b600067ffffffffffffffff821115610e1c57610e1b6110af565b5b610e25826110de565b9050602081019050919050565b6000819050602082019050919050565b6000819050602082019050919050565b600081519050919050565b600081519050919050565b600081519050919050565b6000602082019050919050565b6000602082019050919050565b600082825260208201905092915050565b600082825260208201905092915050565b600082825260208201905092915050565b600082825260208201905092915050565b6000610edc82610f59565b9150610ee783610f59565b9250827fffffffffffffffffffffffffffffffffffffffffffffffffffffffffffffffff03821115610f1c57610f1b611051565b5b828201905092915050565b6000610f3282610f39565b9050919050565b600073ffffffffffffffffffffffffffffffffffffffff82169050919050565b6000819050919050565b82818337600083830152505050565b60005b83811015610f90578082015181840152602081019050610f75565b83811115610f9f576000848401525b50505050565b60006002820490506001821680610fbd57607f821691505b60208210811415610fd157610fd0611080565b5b50919050565b610fe0826110de565b810181811067ffffffffffffffff82111715610fff57610ffe6110af565b5b80604052505050565b600061101382610f59565b91507fffffffffffffffffffffffffffffffffffffffffffffffffffffffffffffffff82141561104657611045611051565b5b600182019050919050565b7f4e487b7100000000000000000000000000000000000000000000000000000000600052601160045260246000fd5b7f4e487b7100000000000000000000000000000000000000000000000000000000600052602260045260246000fd5b7f4e487b7100000000000000000000000000000000000000000000000000000000600052604160045260246000fd5b6000601f19601f8301169050919050565b6110f881610f59565b811461110357600080fd5b5056fea26469706673582212201d9ad4278ca4fe672c57cd9b937227db4c5d8978751240102a529ed24c0cca0a64736f6c63430008040033",
  "linkReferences": {},
  "deployedLinkReferences": {}
}